:020000040000FA
:10000000FE0E2500970C02000F0C34000600FF0CBA
:100010009509FF0C95096600830C160C400C3700FF
:100020000C0C3800C00C770197056509200C6C0991
:10003000D00C6C09010C6C0918026C0917026C09D0
:10004000020C6C09400C6C09000C6C09000C6C096A
:10005000020C6C09700C6C0968090F0C7601F6052E
:10006000380AB6029606F600380AF600F607B60217
:100070006509220C6C09050C6C09880C6C091602C8
:100080006C0968099C0A6509200C6C09C30C6C0991
:10009000010C6C0968099C0A6509200C6C09C10CEB
:1000A0006C09010C6C0968099C0A540514020600CD
:1000B0000008540414020600000834051402060067
:1000C000000834041402060000085D0959090008FC
:1000D00059095D09550900083300080C320061090F
:1000E000F307740A5509750A59095D097303F20289
:1000F0006F0A610955095D090602350061090008AA
:10010000080C32007300730361095D09460613058C
:10011000F202830A6109000859095D09610955095C
:10012000000855095D096109000830003100F0023E
:10013000970AF102970A000866069C0A61006607A2
:100140009F0A010239001E0C990003079C0A2D0C1E
:10015000990003069C0A61006606AC0A0102390098
:100160000D0C990003079C0A140C990003069C0AC5
:100170007A001C0C24007B006000200361006607ED
:10018000BF0A01023900010C990003079C0A030C05
:10019000990003069C0A61006606CC0A0102390038
:1001A000040C99000307D90A080C990003069C0A5D
:1001B000E005BB027B07BD0ABA025A06E10AA402A7
:1001C000BB0A5D029C0143079C0A5F029E01430734
:1001D0009C0A050C9E014307EE0A350A060C9E0197
:1001E0004307F30A310A020C9E014307F80A4C0A3E
:0C01F000030C9E014307FD0A430A9C0A11
:080200000F00020000000000E5
:021FFE00EB0FE7
:00000001FF
